:100000000C94E0000C9408010C9408010C94080175
:100010000C9408010C9408010C9408010C9408013C
:100020000C9408010C9408010C9408010C9408012C
:100030000C9408010C9408010C9408010C9408011C
:100040000C94C60B0C9408010C9470030C944A0396
:100050000C9408010C9408010C9408010C940801FC
:100060000C9497060C94080100407A10F35A00A0F3
:10007000724E18090010A5D4E80000E87648170071
:1000800000E40B54020000CA9A3B000000E1F505B1
:10009000000080969800000040420F000000A086FB
:1000A00001000000102700000000E803000000002D
:1000B0006400000000000A000000000001000000D1
:1000C00000002C76D888DC674F0823DFC1DFAE59EB
:1000D000E1B1B796E5E3E453C63AE651997696E87E
:1000E000E6C28426EB898C9B62ED407C6FFCEFBC02
:1000F0009C9F40F2BAA56FA5F490055A2AF75C932D
:100100006B6CF9676DC11BFCE0E40D47FEF520E662
:10011000B500D0ED902E0300943577050080841E45
:10012000080000204E0A000000C80C333333330FA0
:10013000986E12831141EF8D2114893BE65516CF3D
:10014000FEE6DB18D1844B381BF77C1D901DA4BB49
:10015000E424203284725E228100C9F124ECA1E5FE
:100160003D2700000000240027002A0000000000B6
:10017000250028002B000000000023002600290095
:10018000040404040404040402020202020203033D
:100190000303030301020408102040800102040845
:1001A00010200102040810200000000800020100D5
:1001B000000304070000000000000000FB0FE90F2F
:1001C00011241FBECFEFD8E0DEBFCDBF24E0A6E4F0
:1001D000B2E001C01D92A238B207E1F712E0A0E040
:1001E000B1E0EEE5FFE202C005900D92A634B10742
:1001F000D9F710E0CFEDD0E004C02197FE010E94B6
:100200006E15CE3DD107C9F70E94100C0C94A217B1
:100210000C9400000895CF92DF92EF92FF920F931B
:100220001F93CF93DF936C017A018B01C0E0D0E084
:10023000CE15DF0589F0D8016D918D01D601ED91C4
:10024000FC910190F081E02DC6010995892B11F4F4
:100250007E0102C02196ECCFC701DF91CF911F91A3
:100260000F91FF90EF90DF90CF9008958EEF92E086
:100270000E94C40321E0892B09F420E0822F089515
:100280000E946B170F931F93CF93DF938C01EB01A9
:10029000FC01808191810097B1F0688179816115BD
:1002A000710579F0428153812C813D8142175307BA
:1002B00040F00E948D178C819D81F8019583848385
:1002C00013C00E94091688819981F8019183808367
:1002D0008A819B81938382838C819D819583848392
:1002E000198218821B821A821D821C82DF91CF9193
:1002F0001F910F910895CF93DF93EC01888199812D
:10030000009711F00E940916198218821D821C8222
:100310001B821A82DF91CF9108950F931F93CF9381
:10032000DF93EC0188819981009729F02A813B8134
:100330002617370788F48B016F5F7F4F0E94A11645
:10034000009761F0998388831B830A832C813D8108
:10035000232B11F4FC01108281E001C080E0DF91C9
:10036000CF911F910F910895EF92FF920F931F93DA
:10037000CF93DF93FC01248135816115710511F460
:1003800080E019C041155105A9F07B01EC018A01FB
:10039000020F131FB8010E948D01882389F3288161
:1003A00039818C819D81B701820F931F0E948D1727
:1003B0001D830C8381E0DF91CF911F910F91FF90FE
:1003C000EF900895CF93DF9300D0CDB7DEB7698368
:1003D0001A8241E050E0BE016F5F7F4F0E94B4017E
:1003E0000F900F90DF91CF910895EF92FF920F93AE
:1003F0001F93CF93DF93EC017B018A01BA010E9426
:100400008D01811104C0CE010E947B0107C01D83B4
:100410000C83B701888199810E948D17CE01DF91ED
:10042000CF911F910F91FF90EF900895EF92FF925F
:100430000F931F93CF93DF93EC0181E0888F9B8D07
:100440008C8D981305C0E889F989808185FD24C0C9
:10045000F62E0B8D10E00F5F1F4F0F731127E02E4C
:100460008C8DE8120CC00FB607FCFACFE889F98929
:10047000808185FFF5CFCE010E94E104F1CF8B8D05
:10048000FE01E80FF11DE35AFF4FF0820B8FEA895E
:10049000FB898081806207C0EE89FF896083E889DB
:1004A000F98980818064808381E090E0DF91CF9141
:1004B0001F910F91FF90EF900895FC018081918131
:1004C000009711F00C94861060E070E0CB01089565
:1004D000FC0124813581232B31F421E06115710564
:1004E000A1F0FB0108C0FC018081918161157105BB
:1004F00031F421E0FC018081882339F005C00E949D
:10050000841721E0892B09F020E0822F0895CF93F2
:10051000DF93EC016115710561F0FB010190002092
:10052000E9F73197AF01461B570B0E94B4018111C7
:1005300003C0CE010E947B01CE01DF91CF910895CF
:10054000CF93DF93EC01FB01448155816081718180
:100550000E94B401811103C0CE010E947B01CE0133
:10056000DF91CF910895CF93DF93EC016115710571
:1005700059F0FB0101900020E9F73197AF01461BCC
:10058000570B0E94F50102C00E947B01CE01DF9152
:10059000CF910895CF93DF93EC01FB018617970766
:1005A00061F0608171816115710529F04481558187
:1005B0000E94F50102C00E947B01CE01DF91CF9124
:1005C0000895FC01808191810C940916FC0111822F
:1005D000108213821282158214820C94CA02FC01CA
:1005E00011821082138212821582148261157105A4
:1005F00051F0FB0101900020E9F73197AF01461B54
:10060000570B0C94F5010895BF92CF92DF92EF92B1
:10061000FF920F931F93CF93DF937C016B018A01AD
:10062000E9012417350720F4812F8901C42FD82F21
:1006300065E472E0C7010E94EF02D60114968D9125
:100640009C91159708171907D0F48C179D0708F48B
:10065000EC01D601ED91FC911197EC0FFD1FB080DC
:1006600010824D915C91BA01600F711FC7010E9409
:10067000B302D601ED91FC91EC0FFD1FB082C701D2
:10068000DF91CF911F910F91FF90EF90DF90CF906E
:10069000BF9008951F920F920FB60F9211242F93BF
:1006A0003F934F935F936F937F938F939F93AF93FA
:1006B000BF93EF93FF938EEF92E00E94E104FF91CE
:1006C000EF91BF91AF919F918F917F916F915F91CA
:1006D0004F913F912F910F900FBE0F901F90189543
:1006E0001F920F920FB60F9211242F938F939F9307
:1006F000EF93FF93E0910E03F0910F038081E0915F
:100700001403F091150382FD12C0908180911703AC
:100710008F5F8F7320911803821751F0E0911703B8
:10072000F0E0E250FD4F958F8093170301C0808168
:10073000FF91EF919F918F912F910F900FBE0F908E
:100740001F901895FC01918D828D981761F0828D14
:10075000DF01A80FB11D5D968C91928D9F5F9F73F5
:10076000928F90E008958FEF9FEF0895FC01918D97
:10077000828D981731F0828DE80FF11D858D90E004
:1007800008958FEF9FEF0895FC01918D228D892FA1
:1007900090E0805C9F4F821B91098F739927089589
:1007A00080E090E0892B29F00E94360181110C94A1
:1007B000000008950895E091920280919102E81757
:1007C00030F4F0E0ED56FD4F808190E008958FEF1A
:1007D0009FEF08959091920280919102981750F4A2
:1007E000E92FF0E0ED56FD4F208130E09F5F9093C0
:1007F000920202C02FEF3FEFC9010895809191024C
:1008000090E020919202821B9109089585ED8093DA
:10081000BC008091BC0084FDFCCF1092D9020895E9
:1008200040916C02262F30E0240F311D213231051A
:10083000DCF42091D9022430C9F4FC0180E090E07E
:10084000861758F430916C022191DC01A65BBD4FF4
:10085000A30FB11D2C930196F3CF80916C02680F0A
:1008600060936C0280E0089581E0089582E008952D
:10087000CF92DF92EF92FF920F931F93CF93DF936C
:100880007C01262F972F8A018091DA02882391F02C
:10089000C62FD72F6E01C40ED51ECC15DD0571F005
:1008A0006991D701ED91FC910190F081E02DC70194
:1008B0000995F3CF642F822F0E941004C801DF91A5
:1008C000CF911F910F91FF90EF90DF90CF900895FF
:1008D000CF93DF931F92CDB7DEB769832091DA0201
:1008E0002223D1F02091FD02203240F021E030E0BF
:1008F000FC013383228380E090E015C08091DB020D
:10090000E82FF0E0E452FD4F998190838F5F809350
:10091000DB028093FD0205C061E0CE0101960E94DA
:10092000100481E090E00F90DF91CF910895CF9374
:10093000DF931F92CDB7DEB7FC01808191E09093E9
:10094000DA028093FC021092DB021092FD028BE926
:1009500093E049830E9468044981642F8BE993E006
:100960000E94680481E00F90DF91CF910C94E70919
:100970000F931F93CF93DF9300D000D000D0CDB75B
:10098000DEB78B01BC01CE0101960E94E6026FE248
:1009900071E0CE0101960E948702B8010E94A00278
:1009A0000E94CE09CE0101960E94E10226960FB662
:1009B000F894DEBF0FBECDBFDF91CF911F910F9195
:1009C0000895FC01848DDF01A80FB11DA35ABF4F0C
:1009D0002C91848D90E001968F739927848FA6893E
:1009E000B7892C93A089B1898C9180648C93938D65
:1009F000848D981306C00288F389E02D80818F7D55
:100A000080830895CF93DF93EC01888D8823C9F00C
:100A1000EA89FB89808185FD05C0A889B9898C9107
:100A200086FD0FC00FB607FCF5CF808185FFF2CFA2
:100A3000A889B9898C9185FFEDCFCE010E94E10490
:100A4000E7CFDF91CF910895CF92DF92FF920F937E
:100A50001F93CF93DF93EC010E94800B09851A85C9
:100A60002B853C85601771078207930720F4198650
:100A70001A861B861C862D85211111C009851A85B1
:100A80002B853C85DC01CB01801B910BA20BB30BAA
:100A9000803D9740A105B10510F481E073C01D862B
:100AA0000E94800B69877A878B879C871C821B82B8
:100AB0001A821982188261E08E810E94DA0A6AEF36
:100AC00070E080E090E00E94460B61E08E810E9421
:100AD0000A0B60E08E810E94DA0A64E170E080E037
:100AE00090E00E94460BF89461E08E810E94DA0A41
:100AF0008CE490E00197F1F760E08E810E940A0B90
:100B000010E0F12C81E000E0C82ED12C8E810E94F3
:100B1000B10A8C159D0519F40F5F0F3FB9F78E814F
:100B20000E94B10A0F3FB9F0143090F010FD10C0D0
:100B30009F2D969596959695FE01E90FF11D908152
:100B4000990F90832885201710F491609083F39477
:100B50001F5F1535C1F6789487E28F1590F42C81CC
:100B600030E04881898190E0840F911D4A81840F93
:100B7000911D4B81840F911D99272817390709F47E
:100B80008CCF80E0DF91CF911F910F91FF90DF908C
:100B9000CF900895CF93DF93EC01888191E09093FB
:100BA000DA028093FC021092DB021092FD028BE9C4
:100BB00093E00E94680481E00E94E709888162E076
:100BC00070E0082E000C990B0E94440A8BE993E018
:100BD0000E94EA03EC018BE993E00E94EA0320E023
:100BE00030E0382FC9018C2B9D2BDF91CF910895D8
:100BF0000F931F93CF93DF93EC0110929202109208
:100C000091021092DB021092FD021092D90211E0C3
:100C10001093D8021092B30261E082E10E94DA0AD6
:100C200061E083E10E94DA0A8091B9008E7F8093AF
:100C3000B9008091B9008D7F8093B90080E28093E4
:100C4000B80085E48093BC0088811093DA02809319
:100C5000FC021092DB021092FD026AE08BE993E045
:100C60000E94680481E00E94E709888161E070E0E9
:100C7000082E000C990B0E94440A8BE993E00E9415
:100C8000EA038A709927892B61F11D8319810A81F2
:100C9000CE010E94870619830A834B81412B61E8AC
:100CA000CE010E949704CE010E9477061B810C8121
:100CB0008D81811103C0CE010E94F805CE010E94F2
:100CC00087061B830C834981412B61E8CE010E947A
:100CD0009704CE010E947706CE010E94770681E03C
:100CE00001C080E0DF91CF911F910F910895CF93C4
:100CF000DF93EC018D81811103C0CE010E94F805C4
:100D000040E060E8CE01DF91CF910C949704CF933F
:100D1000DF93EC018D81811103C0CE010E94F805A3
:100D200043E060E8CE01DF91CF910C9497041F92CD
:100D30000F920FB60F9211242F933F934F935F930F
:100D40006F937F938F939F93AF93BF93EF93FF9393
:100D50008091B900887F803609F49CC068F588329C
:100D600009F45BC090F4803109F454C038F488234E
:100D700009F4F6C0883009F44DC0F6C0883109F492
:100D80004CC0803209F45DC0EFC0803409F468C003
:100D900048F4803309F455C0883309F0E5C08093E6
:100DA000D702D8C0803509F44FC0883509F45DC03A
:100DB000883409F0D9C0D6C0883909F4C7C0A8F46E
:100DC000883709F467C038F4883609F463C080377F
:100DD00009F460C0C9C0883809F4B8C0803909F482
:100DE0005FC0803809F0C0C05BC0803B09F486C09A
:100DF00038F4803A09F466C0883A09F47FC0B4C078
:100E0000803C09F4A7C0883C09F4A4C0883B09F4DD
:100E10008AC0AAC08091B40210C09091D60280917D
:100E2000D502981770F5E091D60281E08E0F80937D
:100E3000D602F0E0EB54FD4F80818093BB0085EC3F
:100E400086C08093D7028EC0E091D60281E08E0FDB
:100E50008093D6028091BB00F0E0EB54FD4F80837D
:100E60009091D6028091D5026EC0E091D60281E0C9
:100E70008E0F8093D6028091BB00F0E0EB54FD4FC3
:100E800080838091D80281116DC081E08093B3028C
:100E900084EA61C083E08093D90210929002CFCFA0
:100EA00080919002803208F051C0E091900281E080
:100EB0008E0F809390028091BB00F0E0E059FD4FCF
:100EC0008083BDCF85EC8093BC001092D9028091C5
:100ED0009002803230F4E0919002F0E0E059FD4F52
:100EE00010826091900270E0E0916E02F0916F02CA
:100EF00080E792E009951092900236C084E08093DA
:100F0000D90210926D0210926C02E0916A02F09187
:100F10006B02099580916C02811105C081E080937C
:100F20006C0210924A02E0916D0281E08E0F809374
:100F30006D02F0E0E65BFD4F80818093BB009091F5
:100F40006D0280916C02981708F479CF85E8809340
:100F5000BC000AC085EC8093BC001092D90204C08A
:100F60001092D7020E940604FF91EF91BF91AF91BA
:100F70009F918F917F916F915F914F913F912F91B1
:100F80000F900FBE0F901F901895CF93DF93CDB7A2
:100F9000DEB72C970FB6F894DEBF0FBECDBFBC01F5
:100FA000CE0107960E94E6026BE072E0CE01019648
:100FB0000E94EF02BE01695F7F4FCE0101960E9441
:100FC000B804CE0101960E94E102CE0107960E946C
:100FD000E1022C960FB6F894DEBF0FBECDBFDF91B5
:100FE000CF910895EF92FF920F931F93CF93DF93CA
:100FF000CDB7DEB7E9970FB6F894DEBF0FBECDBF11
:101000007C01CB01BA011DAA1CAA1FAA1EAA19AEF7
:1010100018AE8E010F5F1F4F22E044E00E94661061
:10102000BC01CE01C4960E94B30219A618A61BA645
:101030001AA61DA61CA64AE0B801C7010E94AD1061
:10104000B801CE0188960E94B302BE01685D7F4F51
:10105000CE0182960E94E6026FE271E0CE01829696
:101060000E948702BE016C5C7F4F0E94A002BC01FF
:10107000C8010E94E60264E172E0CE018E960E94F1
:10108000EF02B801CE018E960E94B804CE018E9672
:101090000E94E102C8010E94E102CE0182960E94F4
:1010A000E102CE0188960E94E102CE01C4960E9420
:1010B000E102E9960FB6F894DEBF0FBECDBFDF9117
:1010C000CF911F910F91FF90EF900895AF92BF9233
:1010D000CF92DF92EF92FF920F931F93CF93DF9304
:1010E00000D000D000D0CDB7DEB76C018B01A0904E
:1010F0004602B09047020E945D028AE0F82EFA9CF8
:101100009001FB9C300D1124F901E955FC4F7783C8
:101110006683B801CF010E94CA0267EC71E0C80182
:101120000E946802811116C06DEF71E0C8010E9433
:10113000680281110FC062ED71E0C8010E9468026F
:10114000811115C06DED71E0C8010E946802811126
:101150000EC06BC0C6010E945D02B62E8EE090E00C
:101160000E9474157C01FC01B6828BE00CC0C601A4
:101170000E945D02B62E8EE090E00E9474157C0104
:10118000FC01B68286E1878381E080878587809134
:101190004602909147022AE0289FF001299FF00D16
:1011A0001124E955FC4FF186E08660E08B2D0E940A
:1011B0000A0B61E0F70186810E94DA0AF7011186C5
:1011C00012861386148680914602909147020196FA
:1011D00090934702809346026EE172E0CE01019641
:1011E0000E94EF02B801CE0101960E94A00266E2C1
:1011F00072E00E948702B6010E94A0020E94CE09FE
:10120000CE0101960E94E10226960FB6F894DEBF49
:101210000FBECDBFDF91CF911F910F91FF90EF9047
:10122000DF90CF90BF90AF90089567E072E0C80163
:101230000E946802882339F286E090E00E947415CB
:10124000FC0189E3808315821282118280E190E0A3
:10125000948383838091460290914702F89ED00147
:10126000F99EB00D1124A955BC4F1996FC93EE932D
:101270001897CF010E94F80580914602909147028D
:10128000F89EF001F99EF00D1124E955FC4F808580
:1012900091850E94870697CFCF93DF9300D000D02F
:1012A00000D0CDB7DEB78EEF92E00E94C4031816CF
:1012B0001906ECF061E08DE00E94DA0A68E372E062
:1012C000CE0101960E94EF02CE0101960E94CE0946
:1012D000CE0101960E94E10260E08DE00E94DA0AF0
:1012E00068EE73E080E090E00E94460BDCCF26962B
:1012F0000FB6F894DEBF0FBECDBFDF91CF9108953A
:10130000833081F028F4813099F08230A1F0089583
:101310008730A9F08830B9F08430D1F48091800012
:101320008F7D03C0809180008F7780938000089527
:1013300084B58F7702C084B58F7D84BD0895809178
:10134000B0008F7703C08091B0008F7D8093B00094
:1013500008953FB7F89480917A0490917B04A0910E
:101360007C04B0917D0426B5A89B05C02F3F19F0E1
:101370000196A11DB11D3FBFBA2FA92F982F882715
:10138000820F911DA11DB11DBC01CD0143E0660F6F
:10139000771F881F991F4A95D1F70895CF93DF9340
:1013A000FC0144815581608171818EEF92E00E9441
:1013B0000B01EC0142E050E063E472E08EEF92E05A
:1013C0000E940B018C0F9D1FDF91CF910895382F44
:1013D0002091FD029091FC02213208F049C08091D9
:1013E000D9028111FCCF42E04093D9023093D80258
:1013F0003FEF3093D7021092D6022093D502ACED86
:10140000B2E045EB52E0FA013E2F341B321718F4DC
:101410003D913193F9CF1092B4022091B402990F0B
:10142000922B9093B4029091B302913061F4109298
:10143000B3029091B4029093BB009091BC0093FDD5
:10144000F8CF95EC01C095EE9093BC009091D90235
:101450009230E1F39091D7029F3F79F08091D702CB
:10146000803241F08091D702803331F084E005C0B2
:1014700081E003C082E001C083E01092DB021092A1
:10148000FD021092DA0208959091D9029111FCCFD9
:10149000613208F060E291E09093D9029093D80213
:1014A0002FEF2093D7021092D602260F2093D50259
:1014B0009093B4029091B402880F892B8093B40268
:1014C0008091B302813061F41092B3028091B40232
:1014D0008093BB008091BC0083FDF8CF85EC01C0F8
:1014E00085EE8093BC008091D9028130E1F3809138
:1014F000D602861710F46091D602A5EBB2E023E97C
:1015000032E0F9018E2F821B861718F48D9181939A
:10151000F9CF1092920260939102862F0895CF9393
:10152000DF93009779F0FC0101900020E9F73197F3
:10153000AF01481B590BBC018EEF92E00E940B01DA
:10154000EC0102C0C0E0D0E042E050E063E472E0B1
:101550008EEF92E00E940B018C0F9D1FDF91CF91C7
:101560000895CF93DF93282F30E0F901E855FE4F1F
:101570008491F901EC56FE4FD491F901E058FE4FE9
:10158000C491CC2391F081110E948009EC2FF0E0EE
:10159000EE0FFF1FEA58FE4FA591B491EC91ED2399
:1015A00081E090E021F480E002C080E090E0DF91F3
:1015B000CF9108951F93CF93DF93282F30E0F90147
:1015C000E855FE4F8491F901EC56FE4FD491F90194
:1015D000E058FE4FC491CC23C9F0162F81110E9410
:1015E0008009EC2FF0E0EE0FFF1FE459FE4FA591AC
:1015F000B4918FB7F894111105C09C91ED2FE0952F
:10160000E92302C0EC91ED2BEC938FBFDF91CF91DA
:101610001F910895CF93DF9390E0FC01EC56FE4FAD
:101620002491FC01E058FE4F8491882361F190E001
:10163000880F991FFC01EE59FE4FC591D491FC0112
:10164000E459FE4FA591B491611109C09FB7F89478
:101650008881209582238883EC912E230BC06230F1
:1016600061F49FB7F8943881822F80958323888313
:10167000EC912E2B2C939FBF06C08FB7F894E88176
:101680002E2B28838FBFDF91CF9108958F929F9249
:10169000AF92BF92CF92DF92EF92FF926B017C01EB
:1016A0000E94A9094B015C01C114D104E104F104B9
:1016B000F1F00E94A909DC01CB0188199909AA0956
:1016C000BB09883E9340A105B10570F321E0C21A21
:1016D000D108E108F10888EE880E83E0981EA11C6D
:1016E000B11CC114D104E104F10419F7DDCFFF905E
:1016F000EF90DF90CF90BF90AF909F908F90089524
:101700002FB7F894609176047091770480917804F3
:10171000909179042FBF08950F931F930E94800B1F
:101720006093060370930703809308039093090363
:10173000E091FE02F091FF020680F781E02D8EEF2E
:1017400092E0099597FF1FC00E94800B009106034D
:10175000109107032091080330910903DC01CB01AC
:10176000801B910BA20BB30B00910203109103039A
:10177000209104033091050380179107A207B30756
:10178000B8F28FEF9FEF1F910F9108951F920F9264
:101790000FB60F9211242F933F938F939F93AF9384
:1017A000BF938091760490917704A0917804B091D2
:1017B00079043091750426E0230F2D3720F402962A
:1017C000A11DB11D05C029E8230F0396A11DB11D60
:1017D000209375048093760490937704A093780403
:1017E000B093790480917A0490917B04A0917C0459
:1017F000B0917D040196A11DB11D80937A04909350
:101800007B04A0937C04B0937D04BF91AF919F9122
:101810008F913F912F910F900FBE0F901F901895B1
:10182000CF93DF93CDB7DEB7EC970FB6F894DEBF5A
:101830000FBECDBF789484B5826084BD84B58160CD
:1018400084BD85B5826085BD85B5816085BD80918B
:101850006E00816080936E00109281008091810003
:1018600082608093810080918100816080938100FB
:10187000809180008160809380008091B1008460BD
:101880008093B1008091B00081608093B00080911E
:101890007A00846080937A0080917A0082608093DD
:1018A0007A0080917A008E7F80937A0080917A000E
:1018B000806880937A001092C10061E08DE00E9400
:1018C0000A0BE0910E03F0910F0382E08083E09118
:1018D0000A03F0910B031082E0910C03F0910D03C9
:1018E00087E6808310921603E0911203F0911303B0
:1018F00086E08083E0911003F09111038081806184
:101900008083E0911003F0911103808188608083CF
:10191000E0911003F0911103808180688083E09151
:101920001003F091110380818F7D80830E944C0908
:101930003AE0732E8EEF92E00E94C4031816190647
:101940000CF0A3C265E472E0CE0101960E94EF02A2
:101950000E948C0B97FD09C08A30910531F0682FE9
:10196000CE0101960E94E201F3CFBE016F5F7F4F6F
:101970008FE694E00E944201CE0101960E94E102AE
:101980006FE674E0CE01C7960E94E60265E472E05D
:10199000CE01C1960E94EF0265E472E0CE018B9603
:1019A0000E94EF0266E271E0CE0101960E94EF0212
:1019B000BE01695C7F4FCE0101960E94A0020E9489
:1019C000CE09CE0101960E94E1028BAD9CAD892B20
:1019D000F1F10FA918AD60E270E0C8010E9479171B
:1019E0000097A9F19C01201B310B89010F3F3FEFAC
:1019F000130769F1980140E050E0BE01695C7F4F38
:101A0000CE0101960E940403BE016F5F7F4FCE019D
:101A1000C1960E944201CE0101960E94E1022BADC7
:101A20003CADA8014F5F5F4FBE01695C7F4FCE01A7
:101A300001960E940403BE016F5F7F4FCE018B961B
:101A40000E944201CE0101960E94E10207C0BE0140
:101A5000695C7F4FCE01C1960E94CA0261E371E0CA
:101A6000CE0101960E94EF024D815E818DA99EA953
:101A70008417950770F089A99AA9009751F0698198
:101A80007A816115710529F00E94941711E0892B64
:101A900009F010E0CE0101960E94E102112309F441
:101AA000DAC165E371E0CE0101960E94EF02BE014A
:101AB0006F5C7F4FCE0101960E94A0020E94CE096A
:101AC000CE0101960E94E1026FE371E0CE01019622
:101AD0000E94EF02BE01655D7F4FCE0101960E941C
:101AE000A0020E94CE09CE0101960E94E1026CE4A0
:101AF00071E0CE01C1960E946802882309F4E1C01A
:101B0000BE01655D7F4FCE0185960E94E60261E0D1
:101B10008DE00E94DA0A88E591E00E948F0A65E470
:101B200072E0CE014F960E94EF0265E472E0CE01B2
:101B300049960E94EF02FF24F39400E010E089A58B
:101B40009AA50817190708F049C0EDA1FEA1309722
:101B500029F410924802E8E4F2E002C0E00FF11F1D
:101B600060816D33B9F16C3261F5BE01675E7F4F04
:101B7000CE0101960E94E602BE01615E7F4FCE015A
:101B800043960E94E602BE016F5F7F4FCE014396EF
:101B90000E946608CE0143960E94E102CE010196A2
:101BA0000E94E10265E472E0CE014F960E94B3020A
:101BB00065E472E0CE0149960E94B302FF24F394DB
:101BC0000AC0CE01FF2011F04F9601C049960E9435
:101BD000E20101C0F12C0F5F1F4FB1CF8BA19CA17F
:101BE000892BE9F0BE01675E7F4FCE0101960E940E
:101BF000E602BE01615E7F4FCE0143960E94E6027F
:101C0000BE016F5F7F4FCE0143960E946608CE01F2
:101C100043960E94E102CE0101960E94E10280916A
:101C20004602909147021C8A1B8A1E8A1D8A188EC2
:101C30001F8A4AE0BE016F5F7F4F0E94AD10BE0158
:101C40006F5F7F4FCE0143960E94B30267E671E05B
:101C5000CE0101960E94EF02BE016D5E7F4FCE0164
:101C600001960E94A00266E771E00E9487020E942E
:101C7000CE09CE0101960E94E102CE0143960E9458
:101C8000E10281E08093490260E871E0CE010196B3
:101C90000E94EF02CE0101960E94CE09CE0101966C
:101CA0000E94E10260E08DE00E94DA0ACE014996CE
:101CB0000E94E102CE014F960E94E102CE0185967C
:101CC000D6C06AE871E0CE01C1960E9468028823FE
:101CD00089F083E991E00E948F0A109249021092E4
:101CE0004702109246028EEF92E00E9402050E9487
:101CF0004C09BFC062EA71E0CE01C1960E94680241
:101D0000882309F4B6C0BE01655D7F4FCE014996B8
:101D10000E94E602CE0149960E945D024B015C01E1
:101D200077FD07C0209146023091470226173707FA
:101D30000CF56AEA71E0CE0143960E94EF02BE0103
:101D4000675E7F4FCE0143960E94A00265EB71E073
:101D50000E948702BC01CE0101960E94E602CE01DC
:101D600001960E94C507CE0101960E94E102CE01B4
:101D700043966CC061E08DE00E94DA0A789C800195
:101D8000799C100D112409551C4FB801CE01019604
:101D90000E94E602F8018681978198878F830085EB
:101DA00011851A87098767EC71E0CE0101960E94C0
:101DB0006802811109C062ED71E0CE0101960E94B6
:101DC0006802882309F467C0C8010E94240588239B
:101DD00009F4C0C0F80187818B3009F459C008F4B8
:101DE000B9C08551823008F0B5C0F801F2806F2D7E
:101DF0006F7770E080E090E00E945F1320E030E0B9
:101E000040E853E40E949A131B012C01F8016381FE
:101E100070E080E090E00E945F139B01AC01C20182
:101E2000B1010E94901420E030E040E251E40E94B1
:101E3000FC14AB01BC01F7FC7058C4010E94F2070E
:101E400060E08DE00E94DA0ACE0101960E94E10274
:101E5000CE0149960CC067EE71E0CE0101960E945A
:101E6000EF02CE0101960E94C507CE0101960E94A5
:101E7000E102CE018B960E94E102CE01C1960E9442
:101E8000E102CE01C7960E94E1020E94D00352CD2A
:101E9000F80162811DC06DEF71E0CE0101960E94D4
:101EA0006802811108C06DED71E0CE0101960E94BB
:101EB0006802882379F0C8010E942405882309F468
:101EC00083C0F80187818B3009F055C0F80160812B
:101ED00070E039C067E072E0CE0101960E946802AE
:101EE000882309F4ADCFF8018581811103C0C801B1
:101EF0000E94F805C8010E948706F801818192813D
:101F0000009769F56EE070E080E090E00E94460B7B
:101F10006EEAC8010E94CA056C01E12CF12C6CEA42
:101F2000C8010E94CA057601DD24CC24AC0160E022
:101F300070E0C42AD52AE62AF72AC8010E9477064B
:101F4000CE18DF08B60180E090E00E945D13AB017F
:101F5000BC0173CF40E050E060EC7FE76ECF0197AB
:101F600029F466E670E080E090E0D0CF63E971E0AC
:101F700080E090E0CBCF8B3038F18551823020F576
:101F8000F801608170E080E090E00E945D1320E045
:101F900030E040E853E40E949A136B017C01F801A1
:101FA0008181682F70E080E090E00E945F139B01C8
:101FB000AC01C701B6010E94901420E030E040E27D
:101FC00051E40E94FC14C3CF60E070E080EC9FE716
:101FD000BECFCF93DF93CFE6D4E02A97CE010E9405
:101FE000E10283E0C73AD807C1F78FE694E0DF91BA
:101FF000CF910C94E102CF93DF93109201031092E2
:10200000000388EE93E0A0E0B0E080930203909399
:102010000303A0930403B09305032AE031E0309357
:10202000FF022093FE0225EC30E030930B03209357
:102030000A0324EC30E030930D0320930C0320ECD2
:1020400030E030930F0320930E0321EC30E0309307
:1020500011032093100322EC30E0309313032093FC
:10206000120326EC30E030931503209314031092F2
:102070001703109218031092190310921A0310926A
:102080009E0310929D0380939F039093A003A093BF
:10209000A103B093A2038AE191E090939C03809303
:1020A0009B0365E472E08FE694E00E94EF02C7EACA
:1020B000D3E065E472E0CE010E94EF022A9684E04C
:1020C000CF36D807B1F7DF91CF910895EF920F93F4
:1020D0001F93CF93DF93E80147FD02C034E001C0B6
:1020E00034E1E42F440FFF0BF7FF03C0F195E195B6
:1020F000F109E32E022F2E2FAE010E94E710CE0130
:10210000DF91CF911F910F91EF9008951F93FC01E4
:1021100099278827BC01E89411911032E9F319300E
:1021200010F01E30C8F31B3251F01D3249F4689490
:1021300006C00E94B810610F711D811D911D119183
:1021400010531A30B0F33EF49095809570956195D8
:102150007F4F8F4F9F4F1F910895BB274A3031F417
:10216000992322F4BDE2909581959F4F0C94CE1057
:10217000592F482F372F262F660F771F881F991F3B
:10218000660F771F881F991F620F731F841F951F8B
:10219000660F771F881F991F0895BB27FB015527DE
:1021A000AA27880F991FAA1FA41710F0A41B8395B4
:1021B0005051B9F7A05DAA3308F0A95DA19300972B
:1021C00079F7B111B1931192CB010C944D134F9249
:1021D0005F926F927F929F92AF92BF92CF92DF9267
:1021E000EF92FF920F931F93CF93DF93CDB7DEB79C
:1021F00029970FB6F894DEBF0FBECDBF6A01122F2C
:10220000B02E2BE3201720F0FF24F394F00E02C031
:10221000BCE3FB2E0F2D27E0AE014F5F5F4F0E9406
:102220007512AC018981982F9970913031F0E1FCE1
:1022300006C0E0FE06C090E205C09DE203C09BE23E
:1022400001C090E0EE2DE07183FF3CC0911102C00F
:1022500083E001C084E0811718F4212F281B01C0FE
:1022600020E0E1110BC0F601822F30E2882319F043
:1022700031938150FBCFC20ED11C20E0992329F06D
:10228000D6019C93F60131966F01C6010396E2FEDA
:102290000AC03EE4D6013C9341E411964C93119759
:1022A00012963C9306C03EE6F601308341E6418338
:1022B0003283FC01322F40E2332309F442C04193C0
:1022C0003150FACF82FF44C0911102C083E001C0B7
:1022D00084E0811718F4212F281B01C020E0E111B0
:1022E0000BC0F601822F30E2882319F03193815020
:1022F000FBCFC20ED11C20E0992329F0D6019C937C
:10230000F60131966F01C6010396E2FE0BC039E477
:10231000D6013C933EE411963C93119736E4129615
:102320003C9307C039E6F60130833EE6318336E65A
:102330003283FC01322F40E2332319F041933150B4
:10234000FBCFFC01E20FF11D10828EEF9FEFB7C0B3
:10235000F1E0911101C0F0E06F2F70E01416150646
:1023600024F49A012F5F3F4F02C021E030E0260F96
:10237000371FBB2029F06B2D70E06F5F7F4F02C0CD
:1023800060E070E0260F371F612F70E026173707D7
:102390001CF4121B212F01C020E03E2D387159F48E
:1023A000D601322F60E2332319F06D933150FBCF09
:1023B000C20ED11C20E0FF2331F0D6019C93B60160
:1023C0006F5F7F4F6B01E1110BC0F601922F30E37D
:1023D000992319F031939150FBCFC20ED11C20E00C
:1023E0009F2D940F3A81782F7071A72E84FF03C020
:1023F000313309F49150191624F4993018F098E00B
:1024000001C091E0E42F852F57FF02C0E0E080E09B
:102410006E2F782FE0E0F0E0AEE29A2E3A01691AD2
:1024200071082A01461A570A0B2D10E011950195E3
:1024300011096F3F8FEF780729F4D6019C92C601EE
:1024400001966C014617570784F0661677066CF400
:102450007F01E40CF51CA1E0B0E0AC0FBD1FEA0E5B
:10246000FB1ED7011196BC9002C090E3B92E6150BB
:1024700071093196C60101967C016017710724F03D
:10248000D601BC926C01D5CF6417750741F4363381
:1024900020F4353321F4A11002C081E3B82EF601F7
:1024A000B082F701822F90E2882319F09193815036
:1024B000FBCFF701E20FF11D108280E090E029963A
:1024C0000FB6F894DEBF0FBECDBFDF91CF911F9145
:1024D0000F91FF90EF90DF90CF90BF90AF909F90C3
:1024E0007F906F905F904F900895283008F027E01C
:1024F0003327DA01990F311D87FD91600096610540
:10250000710539F432602E5F3D9330E32A95E1F78F
:1025100008959F3F30F080387105610509F03C5FF8
:102520003C5F3D93913008F08068911DDF93CF931D
:102530001F930F93FF92EF92192F987F9695E92F93
:1025400096959695E90FFF27EE53FF4F992733276E
:10255000EE24FF24A701E70105900894079428F4CE
:10256000360FE71EF81E491F511D660F771F881F83
:10257000991F0694A1F70590079428F4E70EF81E1A
:10258000491F561FC11D770F881F991F661F06948C
:10259000A1F70590079428F4F80E491F561FC71F8E
:1025A000D11D880F991F661F771F0694A1F705900C
:1025B000079420F4490F561FC71FD81F990F661F95
:1025C000771F881F0694A9F784911095177041F022
:1025D000D695C79557954795F794E7941A95C1F7FF
:1025E000E8E6F0E068941590159135916591959124
:1025F00005907FE27395E118F10A430B560BC90B66
:10260000D009C0F7E10CF11E431F561FC91FD01D92
:102610007EF4703311F48A95E6CFE894015030F0DF
:10262000080F0AF40027021708F4202F2395022F21
:102630007A3328F079E37D932A95E9F710C07D93EA
:102640002A9589F606949795679537951795179467
:10265000E118F10A430B560BC90BD00998F02395EA
:102660007E9173957A3308F070E37C932013B8F76A
:102670007E9170617D9330F0839571E37D9370E37B
:102680002A95E1F71124EF90FF900F911F91CF91C0
:10269000DF91992787FD90950895DC01FC01672F54
:1026A00071917723E1F7329704C07C916D93708329
:1026B0006291AE17BF07C8F30895E89409C097FB6D
:1026C0003EF490958095709561957F4F8F4F9F4F09
:1026D0009923A9F0F92F96E9BB279395F69587954D
:1026E00077956795B795F111F8CFFAF4BB0F11F410
:1026F00060FF1BC06F5F7F4F8F4F9F4F16C08823B7
:1027000011F096E911C0772321F09EE8872F762FEC
:1027100005C0662371F096E8862F70E060E02AF02D
:102720009A95660F771F881FDAF7880F9695879519
:1027300097F908950E94AD130C941E140E94101472
:1027400038F00E94171420F0952311F00C94071410
:102750000C940D1411240C9452140E942F1470F335
:10276000959FC1F3950F50E0551F629FF001729F36
:10277000BB27F00DB11D639FAA27F00DB11DAA1F45
:10278000649F6627B00DA11D661F829F2227B00D92
:10279000A11D621F739FB00DA11D621F839FA00D1D
:1027A000611D221F749F3327A00D611D231F849F6D
:1027B000600D211D822F762F6A2F11249F575040C4
:1027C0009AF0F1F088234AF0EE0FFF1FBB1F661F3F
:1027D000771F881F91505040A9F79E3F510580F008
:1027E0000C9407140C9452145F3FE4F3983ED4F316
:1027F000869577956795B795F795E7959F5FC1F7AC
:10280000FE2B880F911D9695879597F9089597F956
:102810009F6780E870E060E008959FEF80EC089586
:1028200000240A94161617061806090608950024AF
:102830000A9412161306140605060895092E039429
:10284000000C11F4882352F0BB0F40F4BF2B11F49D
:1028500060FF04C06F5F7F4F8F4F9F4F089557FDFC
:102860009058440F551F59F05F3F71F04795880FFE
:1028700097FB991F61F09F3F79F087950895121695
:1028800013061406551FF2CF4695F1DF08C0161641
:1028900017061806991FF1CF8695710561050894F2
:1028A0000895E894BB2766277727CB0197F9089509
:1028B0002F923F924F925F926F927F928F929F9250
:1028C000AF92BF92CF92DF92EF92FF920F931F933E
:1028D000CF93DF93CDB7DEB7CA1BDB0B0FB6F894EF
:1028E000DEBF0FBECDBF09942A88398848885F842F
:1028F0006E847D848C849B84AA84B984C884DF80A0
:10290000EE80FD800C811B81AA81B981CE0FD11D83
:102910000FB6F894DEBF0FBECDBFED01089550583D
:10292000BB27AA270E94A7140C941E140E941014FF
:1029300038F00E94171420F039F49F3F19F426F460
:102940000C940D140EF4E095E7FB0C940714E92F9A
:102950000E942F1458F3BA1762077307840795076C
:1029600020F079F4A6F50C9451140EF4E0950B2E9A
:10297000BA2FA02D0B01B90190010C01CA01A001D1
:102980001124FF27591B99F0593F50F4503E68F12C
:102990001A16F040A22F232F342F4427585FF3CF6D
:1029A000469537952795A795F0405395C9F77EF43E
:1029B0001F16BA0B620B730B840BBAF09150A1F087
:1029C000FF0FBB1F661F771F881FC2F70EC0BA0F0D
:1029D000621F731F841F48F4879577956795B79595
:1029E000F7959E3F08F0B0CF9395880F08F0992790
:1029F000EE0F9795879508950E9410150C941E145C
:102A00000E94171458F00E94101440F029F45F3F00
:102A100029F00C94071451110C9452140C940D14B9
:102A20000E942F1468F39923B1F3552391F3951B5A
:102A3000550BBB27AA2762177307840738F09F5FDF
:102A40005F4F220F331F441FAA1FA9F335D00E2E4C
:102A50003AF0E0E832D091505040E695001CCAF7B9
:102A60002BD0FE2F29D0660F771F881FBB1F26177C
:102A700037074807AB07B0E809F0BB0B802DBF0153
:102A8000FF2793585F4F3AF09E3F510578F00C9422
:102A900007140C9452145F3FE4F3983ED4F38695E8
:102AA00077956795B795F7959F5FC9F7880F911D43
:102AB0009695879597F90895E1E0660F771F881F2F
:102AC000BB1F621773078407BA0720F0621B730BE2
:102AD000840BBA0BEE1F88F7E0950895EE0FFF1FE9
:102AE0000590F491E02D0994CF93DF938230910506
:102AF00010F482E090E0E0918004F091810420E005
:102B000030E0C0E0D0E0309711F1408151814817AA
:102B10005907C0F04817590761F4828193812097C3
:102B200019F09B838A832BC0909381048093800447
:102B300026C02115310519F04217530718F49A01E0
:102B4000BE01DF01EF010280F381E02DDCCF211512
:102B5000310509F1281B390B2430310590F4129608
:102B60008D919C9113976115710521F0FB01938361
:102B7000828304C09093810480938004FD01329687
:102B800044C0FD01E20FF31F81939193225031095C
:102B90002D933C933AC020917E0430917F04232BE7
:102BA00041F4209102013091030130937F0420937E
:102BB0007E0420910001309101012115310541F47D
:102BC0002DB73EB74091040150910501241B350BF0
:102BD000E0917E04F0917F04E217F307A0F42E1B2E
:102BE0003F0B2817390778F0AC014E5F5F4F241771
:102BF000350748F04E0F5F1F50937F0440937E04CB
:102C00008193919302C0E0E0F0E0CF01DF91CF919A
:102C100008950F931F93CF93DF93009709F48CC00F
:102C2000FC0132971382128200918004109181047A
:102C30000115110581F420813181820F931F2091AC
:102C40007E0430917F042817390779F5F0937F04CB
:102C5000E0937E0471C0D80140E050E0AE17BF079A
:102C600050F412962D913C911397AD012115310529
:102C700009F1D901F3CF9D01DA0133832283608109
:102C80007181860F971F8217930769F4EC012881E1
:102C90003981260F371F2E5F3F4F318320838A8172
:102CA0009B8193838283452B29F4F0938104E093E5
:102CB000800442C01396FC93EE931297ED01499164
:102CC00059919E01240F351FE217F30771F480819B
:102CD0009181840F951F029611969C938E93828109
:102CE000938113969C938E931297E0E0F0E0D801C5
:102CF00012968D919C911397009719F0F8018C0111
:102D0000F6CF8D919C9198012E5F3F4F820F931FBC
:102D100020917E0430917F042817390769F4309799
:102D200029F4109281041092800402C0138212824E
:102D300010937F0400937E04DF91CF911F910F9138
:102D40000895A0E0B0E0E7EAF6E10C945C14EC0131
:102D5000009721F4CB010E947415B8C0FC01E60F66
:102D6000F71F9C0122503109E217F30708F4ACC0A9
:102D7000D9010D911C91119706171707B0F0053076
:102D8000110508F49FC0C80104978617970708F437
:102D900099C002501109061B170B019311936D93F3
:102DA0007C93CF010E9409168DC05B01A01AB10A65
:102DB0004C01800E911EA0918004B091810440E0EE
:102DC00050E0E12CF12C109709F44AC0A815B90580
:102DD000D1F56D907C901197630182E0C80ED11CF3
:102DE000CA14DB0480F1A3014A195B096A0182E07D
:102DF000C80ED11C1296BC9012971396AC91B5E0F8
:102E0000CB16D10440F0B282A38351834083D90111
:102E10006D937C930AC00E5F1F4FC301800F911FFB
:102E2000F90191838083EB2DFA2FE114F10431F045
:102E3000D7011396FC93EE93129744C0F09381044C
:102E4000E09380043FC08D919C91119748175907DA
:102E500008F4AC017D0112960D90BC91A02DB3CF6A
:102E600080917E0490917F0488159905E1F44617BE
:102E70005707C8F48091000190910101009741F437
:102E80008DB79EB74091040150910501841B950BAD
:102E9000E817F907C8F4F0937F04E0937E04F90182
:102EA000718360830FC0CB010E9474157C01009771
:102EB00059F0A801BE010E947017CE010E940916A8
:102EC000C70104C0CE0102C080E090E0CDB7DEB7FC
:102ED000EEE00C94781481E090E0F8940C94A21742
:102EE000FB01DC0102C001900D9241505040D8F727
:102EF0000895FC018191861721F08823D9F799273D
:102F000008953197CF010895FB01DC018D91019067
:102F100080190110D9F3990B0895FB01DC01019090
:102F20000D920020E1F70895FB01DC014150504073
:102F300030F08D910190801919F40020B9F7881BA9
:102F4000990B089510E0CFEDD0E004C0FE010E947F
:0E2F50006E152196C03ED107C9F7F894FFCF49
:102F5E000000820480000000000016020B01C40372
:102F6E00A203B60302050000000068043804FE0345
:102F7E00EA03DB03DA03524543494249444F3A2000
:102F8E000041535F00434F4D414E444F3A20005095
:102F9E004152414D4554524F533A200041535F49DF
:102FAE004E49544441544100496E696369616C69EC
:102FBE007A616369F36E00496E696369616C697A5F
:102FCE0061646F7320002073656E736F726573009A
:102FDE0041535F494E49544F4B0041535F52455345
:102FEE004554005265696E696369616E646F2E2E79
:102FFE002E0041535F5245414400456C2073656E6F
:10300E00736F722000206E6F20657374E12064650B
:10301E0066696E69646F0064687431315F74656DE2
:10302E00700064687432325F74656D700064687429
:10303E0032325F68756D00436F6D616E646F206E26
:10304E006F207265636F6E6F6369646F006468747E
:10305E0031315F68756D006C75780041535F455274
:10306E00524F520041535F524541444F4B005365FE
:10307E006E736F72200020636F6E65637461646F90
:10308E002061204750494F0041535F494E495452E9
:06309E004551000D0A007F
:00000001FF
